:020000040800F2
:20000000F0FF0120A1B404081961040851F0010819B5040819B5040819B504080000000011
:200020000000000000000000000000001D61040821610408000000002561040895B70108C1
:2000400019B5040819B5040819B5040819B5040819B5040819B504089D9A0108A59A0108FC
:20006000AD9A0108B59A0108BD9A0108F1C8000805C9000819C900082DC9000841C90008E7
:2000800055C9000869C9000819B5040800000000000000000000000000000000C59A0108BE
:2000A00099EC010831EC0108A9EC010821EC010859EC010869EC010879EC01081DBC0008DD
:2000C000E5C0000825BC0008E9C0000819B5040819B504080DB7010819B70108000000007F
:2000E000CD9A010819B5040851730408000000000000000000000000000000007DC9000898
:200100000000000019B5040889EC010819B5040800000000000000000000000000000000AD
:2001200091C90008A5C90008B9C90008CDC90008E1C900080000000000000000000000000D
:2001400000000000000000000000000029610408F5C9000809CA00081DCA000825B7010894
:200160002DBC0008EDC00008000000000000000000000000000000000000000000000000D9
:200180000000000019B50408000000000000000019B5040819B5040834B0040001000000E8
:2001A000FA01010003000000B04B0020404B00200000000071F400083C4B00200530010030
:2001C0000800000060460020484B00200000000010BC0508444B00201302010004000000FC
:2001E00050460020544B00200000000018BC0508504B00200A9001002400000010280020D7
:20020000604B002000000000892303085C4B0020061001002600000094290020884B002088
:200220000000000089F40008844B002021020100F0000000D08700206890002000000000A7
:20024000E1C10308649000202C00040010000000C08700205C91002000000000651E03089B
:200260005891002025201E002C010000148600207091002000000000000000006C910020ED
:200280002B001200240000007C850020A092002000000000751E03089C920020012001007C
:2002A0000C000000087E0020C8920020000000001CBC0508C492002027000100040000008B
:2002C000447E0020D89200200000000028BC0508D49200200C50040080000000FC700020CF
:2002E000E092002000000000E1620208DC920020031101000A000000B47C0020649300200B
:200300000000000069110408609300202920140078000000547A002074930020000000005A
:2003200000000000709300200B3001001A000000D0790020F0930020000000002CBC050843
:20034000EC9300200E500400580200007C7100201094002000000000651D03080C94002024
:200360000D1001004C0000007C7900206C9600200000000049F70108689600202202010050
:200380001C010000C07C0020BC96002000000000690A0108B8960020160215003F0000001C
:2003A00000890020DC970020000000005DF50008D89700201F0208001000000030980020F7
:2003C000209800200000000039F500081C9800201840010038000000187A002044980020FC
:2003E000000000009DFC0008409800201B02010010000000909800208098002000000000B6
:2004000025F500087C9800201A0201003C000000E0980020A4980020000000003DFC0008F8
:20042000A09800200400080080000000408700202099002000000000000000001C99002043
:20044000081203000F000000208C0020A49900200000000005F40008A09900201C020200CD
:200460001C000000EC790020B899002000000000B1FB0008B49900202320010010000000F5
:20048000087A0020D89900200000000075230308D4990020031201003D000000C08800203E
:2004A000EC9900200000000046BC0508E8990020010201000A000000C08F0020309A002080
:2004C0000000000061F400082C9A00200C02010004000000308C0020409A002000000000F0
:2004E00079F400083C9A0020FD1701009A000000CA8F0020489A00200000000085B2030825
:20050000449A00201310010004000000C8790020E89A00200000000084BC0508E49A0020C7
:200520000202010003000000BC8F0020F09A00200000000000000000EC9A0020F5C1010041
:2005400074000000407C0020F89A0020000000005DC70308F49A0020F62101000C00000098
:20056000E87A0020709B00200000000088BC05086C9B0020F8310100060000006479002029
:20058000809B00200000000094BC05087C9B0020020001000C000000808C00208C9B00200A
:2005A0000000000000000000889B0020FE01010014000000CC7A00209C9B00200000000027
:2005C000EDF30008989B002006120300120000006C8C0020B49B00200000000039FB0008F0
:2005E000B09B0020F701010006000000E07A0020CC9B0020000000009ABC0508C89B0020AA
:200600001A0001000E000000108C0020D89B002000000000A0BC0508D49B00201400010055
:200620000500000074790020EC9B002000000000AEBC0508E89B0020FD01010024000000C4
:20064000CE8B0020F89B0020000000005B710108F49B00201D02020006000000C88B002050
:20066000209C002000000000000000001C9C0020F90101000400000050AF00202C9C0020C0
:200680000000000015710108289C0020123001001000000044700020349C002000000000D0
:2006A000B4BC0508309C00201F500100240000007CB300200CBC002000000000C4BC050879
:2006C00008BC00201B2001000C00000028B6002034BC00200000000019AC030830BC002004
:2006E000162001000600000038B6002044BC002000000000E8BC050840BC002010100100A1
:2007000002000000F0B3002050BC002000000000EEBC05084CBC00201900010005000000EA
:20072000CCB9002058BC002000000000F0BC050854BC00200E020100020000001CBA0020EE
:2007400064BC002000000000F6BC050860BC00202F200100220000006CBC002058AF00207D
:2007600000000000F8BC050868BC00202D0201000100000090BF00209CBF00200000000059
:200780000000000098BF00202902010040000000A4BC0020A4BF0020000000001ABD05088F
:2007A000A0BF00200101010004000000E0BE0020E8BF00200000000000000000E4BF00206B
:2007C0000001010004000000DCBE0020F0BF0020000000005ABD0508ECBF00200201010097
:2007E00003000000D8BE0020F8BF002000000000D1620208F4BF00202052010008000000DE
:20080000B0BD002000C00020000000005EBD0508FCBF00202A12010008000000A8BD00209E
:200820000CC000200000000066BD050808C000203840010006000000CCCE0020B0E00020CB
:20084000000000006EBD0508ACE00020050201000400000010CF0020BCE0002000000000ED
:2008600074BD0508B8E000202C02010004000000A0C10020E4E000200000000078BD0508A8
:20088000E0E00020233201001400000000E50020FCE70020000000007CBD0508F8E70020C1
:2008A000001201000A000000F4E900205CF00020000000000000000058F00020090201003E
:2008C00001000000743001209C3001200000000090BD050898300120050001001201000207
:2008E00000000040830420570002010203010000040309041A030000000000000000000080
:2009000000000000000000000000000000000000D8000000000000000500000006000000F4
:200920000200000000000000A0050020584B002002000000010000001D8800089C050020BC
:20094000000000000100000001000000FD870008E001002000000000000000000000000008
:20096000000000000000000000000000000000000100000000000000000000000000000076
:20098000000000000100000000000000000000000000000000000000010000000000000055
:2009A000030000000000000005000000A40000000000000000000000000004010000020084
:2009C00001000002100000000700FF000060024010600240000000000000000000000000AA
:2009E000000B0000000000000000000000000000006002402860024001000000000000007F
:200A000000000000060C00000000000000000000000000000060024040600240020000003E
:200A20000000000000000000100D00000000000000000000000000000060024058600240FD
:200A4000030000000000000000000000160E000000000000000000000000000000600240CD
:200A600070600240040000000000000000000000200F000000000000000000000000000031
:200A800000600240886002400500000000000000000000002610000000000000000000004F
:200AA0000000000000600240A060024006000000000000000000000030110000000000000B
:200AC000000000000000000000600240B8600240070000000000000000000000362F0000AE
:200AE00000000000000000000000000000640240106402400000000000000000000000009A
:200B0000003800000000000000000000000000000064024028640240010000000000000028
:200B20000000000006390000000000000000000000000000006402404064024002000000E8
:200B40000000000000000000103A00000000000000000000000000000064024058640240A7
:200B6000030000000000000000000000163B0000000000000000000000000000006402407B
:200B800070640240040000000000000000000000203C0000000000000000000000000000DF
:200BA0000064024088640240050000000000000000000000264400000000000000000000F2
:200BC0000000000000640240A06402400600000000000000000000003045000000000000AE
:200BE000000000000000000000640240B8640240070000000000000000000000364600006E
:200C0000000000000000000000000000FF00E001FF080000F40100000000000000000000F8
:200C20000000000001000000000000000000000000000000000000000100000000000000B2
:200C4000D5890008018A0008198A00081D8A0008B5B50008218A0008258A0008E8D204089F
:200C60000D41040865160408953F04080000000000000000C9330408093404080000000062
:200C80000000000000000000A5160408E5880008F188000861B5000839B50008FD880008F6
:200CA0007DB5000899B500081F0000001C0000001F0000001E0000001F0000001E000000EF
:200CC0001F0000001F0000001E0000001F0000001E0000001F0000000068214C0600000081
:200CE00005000000E1160408E5160408E9160408F5160408F9160408ED160408F116040886
:200D0000FFFF0000FFFFFFFF010000000001010100000000FFFFFFFF004905080000080279
:200D200005030300000000000C4905080100080205040300000000001849050800000802B7
:200D40000503030000000000204905080100080205040300000000009CA405080200FE01AD
:200D60000110030000000000CC4405080300140200030000000000002849050804001F0283
:200D800002000800000000003049050805001F0202010800000000000101FF0024E704087A
:200DA00058E704088CE70408FFFFFFFF0000803F0000000000000000000000000000803FEF
:200DC0000000000000000000000000000000803F0000000000000000000000007D000000D7
:200DE000FFFFFFFFBC490508204D0508000000000DF70108A086010004000000BC49050821
:200E0000C4A005080000000095A80108E80300000400000098410508000000000000000046
:200E2000959D02087D000000FF0000008845050800000000000000004DF102087D0000005B
:200E4000FF000000B4A80508000000000000000091C802087D000000FF000000B44D05083D
:200E6000000000000000000035830108E8030000030000006C470508000000000000000003
:200E8000E140030810270000030000002449050800000000092003084DBB01085F76000058
:200EA00005000000A04F0508000000000000000005F201081027000002000000CCA005087F
:200EC0000000000000000000BD720108E803000005000000D8A00508000000000000000065
:200EE00021670208204E000003000000E8A00508000000000000000085E60208204E000077
:200F000003000000F8A005080000000000000000997F0108400D030003000000984A0508C6
:200F20000000000000000000855802081027000002000000A84F050800000000000000008D
:200F400009AA0108A00F00000200000008A105080000000000000000C1D503081027000096
:200F600002000000A04A050800000000B3B2030871FE0308854501000200000098430508D9
:200F80000000000000000000650F04081027000002000000344D050800000000000000000A
:200FA0005D8C030850C300000200000014A105080000000000000000751F0408400D030076
:200FC000010000001CA105080000000000000000C5E9030850C300000300000028A10508A1
:200FE00000000000000000005162020840420F000100000034A105080000000000000000C0
:20100000814604081027000002000000FFFFFFFFA1F7010800000000000000000000000027
:2010200019610208000000000000000000000000493F0408111604082D3E040800000000EE
:20104000411604087D3F04088D2C0408692C0408000000000000000035160408B1160408D5
:20106000D5160408A96004088D600408C5600408E1600408FD6004089D3E0408ED1504088F
:201080001D3C040800000000BD150408BD2A04085D2B0408452C0408000000000000000009
:2010A000E115040800000000D0E000200800000000000000C0E0002008000000FFFFFFFF92
:2010C000010000000000FA430000FA430000803F7EFF7EFFE2FFE2FF01F11F3FDCE70020E7
:2010E000EAE700200000803F00000000000000000000000000000000000000000000000040
:2011000000000000000000000000000009580208000000000000000000000000EDBC0308B0
:20112000000000000000000000300508000000000000000000000000501E050800000000F7
:201140000000000000000000FC1D050801000000FA0000000100000001000000B0E50020B7
:2011600000C80100B1E5002000500100B2E50020005A0100B3E50020020000004CDE04089D
:20118000ACA50508B4A50508C6E500200100C40900000000C4E500200100C409000000005B
:2011A000C2E500200100C40900000000C0E500200100C40900000000BCE500200100C40978
:2011C00000000000BEE500200100C40900000000BAE500200100C40900000000B8E5002034
:2011E0000100C40900000000C8E5002000C80100C9E5002000C80100CAE500200000FFFF27
:201200000A000000CCE500200100C80001000000CEE500203200307532000000D0E5002078
:20122000E2FF140005000000D2E500207EFF140005000000D4E5002005002C010500000037
:20124000D6E50020055A0500D9E5002000FF0100DDE5002002000000400A0020E1E500203D
:2012600003000000981E0508D8E5002000FF0100DCE5002002000000400A0020E0E5002099
:2012800003000000981E0508E2E50020FF7F0100E4E5002000000000FFFFFFFF010000003C
:2012A000E8E5002000000000FFFFFFFF01000000ECE5002000000000FFFFFFFF0100000056
:2012C000F0E50020EE02CA0801000000F2E5002000C8010064000000F3E5002002C801006F
:2012E00064000000F4E5002001000000A81E0508F6E500200000803E05000000F8E5002002
:2013000080C1803E05000000FAE500200083007D05000000FCE5002080C1803E05000000C0
:20132000FEE5002000FF010000E600206400F4010100000002E600206400F40101000000E8
:2013400004E600206400F4010100000006E6002004000000A4E1040807E600200200000079
:2013600098E1040808E600200D00000000DE040809E60020006401000AE6002032001027F6
:201380000A0000000CE600200D00000000DE04080DE600200D00000000DE04080EE600201C
:2013A0000200000038DE0408000000000000000000000000B01E05080FE600204E000000CB
:2013C000BCDF040810E6002003000000E81E050811E6002004000000B8E1040812E6002062
:2013E00003000000F81E050813E6002003000000F81E050814E60020000A010016E6002047
:201400000000E8030100000018E600200000E803010000001AE60020000A01001CE6002089
:201420000000E803010000001EE600200000E8030100000020E60020C800E80301000000D6
:2014400022E600201400FA000100000024E600200100E8030100000026E60020000501000C
:2014600027E6002002000000FCDE040828E600200000F401010000002AE600200000F4010E
:20148000010000002CE600200000F401010000002EE600200000F4010100000030E60020C3
:2014A0000000E8030100000032E600200000E8030100000053E60020006401000A00000054
:2014C00052E60020006401000A00000041E600201964010040E6002002000000F0DE04085E
:2014E00035E600200064010034E60020006401003CE60020006401000A0000003BE60020BB
:20150000006401000A0000003AE60020006401000A0000003FE6002000FF01000A0000005E
:201520003EE6002000FF01000A0000003DE6002000FF01000A00000039E6002001FF0100D0
:201540000A00000038E6002001FF01000A00000037E6002001FF01000A00000054E6002096
:201560000000F4010100000056E600200000E8030100000058E600200000E80301000000E3
:201580005AE600200000E803010000005CE600200000E803010000005EE60020E803D0078B
:2015A0000A00000060E60020006401000A00000061E600200096010062E6002000C801001D
:2015C00063E600200064010066E600200064010065E600200064010064E6002000640100CD
:2015E00067E60020FF08010068E6002001640100F59E0308499F030800000000081F0508DD
:2016000069E60020013201006AE6002001000000C4DE04086BE6002004000000CCDE0408DD
:201620006CE60020009601006DE60020006401006EE6002000FA0100640000006FE6002081
:201640000A5A010070E6002000C8010071E6002000C8010072E6002000C8010073E60020EC
:201660000032010074E600200014010075E60020004B010076E6002004000000CCDD0408AC
:2016800077E60020006401000A00000078E600200AC805000A00000079E60020010000007F
:2016A0001CE204087AE600200AC805000A0000007BE60020010000001CE204087CE60020B1
:2016C00000C805000A0000007DE6002000C805000A0000007EE6002000C805000A0000007E
:2016E0007FE6002000C805000A00000080E6002000C805000A00000081E6002000C80500DD
:201700000A00000082E6002000C805000A00000083E6002000C805000A00000084E6002076
:20172000020000009CDD04088CE600200000D0070100000098E6002000C8010097E60020B4
:2017400000C8010096E6002000C801008AE600200000D0070100000095E6002000C801008F
:2017600094E6002000C8010093E6002000C8010088E600200000D0070100000092E60020A6
:2017800000C8010091E6002000C8010090E6002000C8010090B005080000000000007CE711
:2017A00000209CB005080708000000004C100020A4B0050807080000000044100020ACB0E5
:2017C00005080708000000003C100020B4B0050808080000000030100020BCB00508070818
:2017E0000000000028100020C4B0050807080000000020100020CCB0050807080000000019
:2018000018100020D4B005080808000000000C100020DCB0050807100000000004100020BF
:20182000E4B00508071000000000FC0F0020ECB00508071000000000F40F0020F4B0050831
:20184000081000000000E80F00207CA505080100000000000000000000000000100000001A
:201860000000000000000000E5A20308F5A203083DBE0308781F050889E70020005A01009F
:201880008AE7002000C801008CE70020E803D00701000000000000000000000019B90308BB
:2018A000142005088EE70020030000008CDD04088FE700200003010090E7002000030100A5
:2018C00091A3030805A40308000000005C20050879A40308BDA403080000000004210508C6
:2018E00079A3030839F60308000000008421050891E700200103010095A70308C9A7030876
:201900000000000094240508499D03087D9D0308000000001425050851A50308D1A5030824
:20192000000000007825050875A2030815D503080000000030260508EDB60308059D030828
:2019400000000000D8260508E1A103080000000000000000742705083DA00308CDA00308E7
:2019600000000000D82705089D9F0308ED9F03080000000090280508590C0408C19E0308DD
:20198000000000001C290508A4E700200300000094E7002051A10308A1A103080000000062
:2019A000182A0508A10C0408A9BB030800000000882A0508059E030849BA03080000000035
:2019C000202C0508F90B040809BA03080000000054100020B8E7002003000000A8E70020DB
:2019E00011A3030845A30308000000002C2D05088DB903080000000000000000902D0508B4
:201A000009A503086DF60308000000002C2E0508000000000000000000000000C82E050835
:201A2000650B0408D5B9030800000000482F050800FF00000000000000000000F5A6030868
:201A400000000000000000008831050801010000000001FF000000000000000000000000BE
:201A6000A438050821E10308000000000000000008380508991E0408000000000000000060
:201A80007C37050839B403080000000000000000343705080000000000000000F9B303085F
:201AA000B7E900202D202D2D202D2D2D2D202D2D2D00000000000000000000000000000044
:201AC0000000000101FF0000FFFFFFFF0101010018E8002088136F17010000001AE80020A2
:201AE00088136F17000000001CE8002088136F17010000001EE8002088136F170000000038
:201B0000ADA6030800000000000000009C340508EFE9002001000000F034050821E8002037
:201B200001000000FC340508C8E800200200000004350508D1A603080000000000000000CD
:201B400010350508000000000000000000000000643505080000000000000000000000008D
:201B6000D435050816E80020020000001C360508E0EB0020E0150C1700000000C0120000FB
:201B800072F00020000000000000000070F0002000000000000000006EF0002000000000C5
:201BA000000000006CF0002000000000000000006AF00020000000000000000068F00020B7
:201BC00000000000000000003C140020000000000000000020E80020030000000C3605081B
:201BE0000000000000000000000000002836050876F00020E0150C170000000078F0002054
:201C0000020000001C3605082D202D2D202D2D2D2D202D2D2D2D0000000000000000000014
:201C20000000000000000000000000000000000000000000603605087AF000209CFF2C01AF
:201C400000000000BAEB0020E0150C170000000024EB0020020000001C3605082D202D2D70
:201C6000202D2D2D2D202D2D2D2D00000000000000000000000000000000000000000000BC
:201C800000000000000000009836050801AA55070100001401000000FF00000009024300FF
:201CA000020100C0320904000001020201000524001001052401000104240202052406005C
:201CC00001070582030800FF09040100020A00000007050102400000070581024000000033
:201CE00009026400030100C03209040000010300000009211101000122360007058303093E
:201D0000000A080B01020202010009040100010202010005240010010524010002042402FA
:201D2000020524060102070582030800FF09040200020A00000007050102400000070581E0
:201D40000240000009022000010104C03209040000020806500507058102400000070501D0
:201D60000240000012010002EF020140830456320002010203010000120100020202004069
:201D8000830440570002010203010000040309040101AA55050100000800000005010905E5
:201DA000A101A1000501093009310932093309350934093609371581257F7508950881021F
:201DC00005091901290815002501950875018102C0C0000009022200010100E0320904000B
:201DE0000001030102000921110100012236000705830309000AAA550902000000AA550396
:201E0000009F000001000000AA550B010000AA5505010000FF000000000000000102030409
:201E20000102030406070809313A0408D13A04080D3504088D1504084D3E040871150408C7
:201E4000591504089D150408AD1504080000000000000000C70000000500000006000000AA
:201E6000241700200000000000000000000000000000000000000000000000000000000007
:201E8000000000000000000000000000000000000000000000000000000000000000000042
:201EA000000000000000000000000000000000000000000000000000000000000000000022
:201EC00000000000FFFFFFFFFFFFFFFFFFFFFFFFFFFFFFFFFFFFFFFFFFFFFFFFFFFFFFFF1E
:201EE000FFFFFFFFFFFFFFFFFFFFFFFFFFFFFFFFFFFFFFFFFFFFFFFFFFFFFFFFFFFFFFFF02
:201F0000FFFFFFFFFFFFFFFFFFFFFFFFFFFFFFFFFFFFFFFFFFFFFFFFFFFFFFFFFFFFFFFFE1
:201F2000FFFFFFFFFFFFFFFFFFFFFFFFFFFFFFFFFFFFFFFFFFFFFFFFFFFFFFFFFFFFFFFFC1
:201F4000FFFFFFFFFFFFFFFFFFFFFFFFFFFFFFFFFFFFFFFFFFFFFFFFFFFFFFFFFFFFFFFFA1
:020000040800F2
:202800000828000800400008232042657461666C696768740A626F6172645F6E616D6520C9
:2028200042455441465056463431310A6D616E7566616374757265725F696420424546483C
:202840000A7265736F75726365204245455045522031204230320A7265736F75726365208C
:202860004D4F544F522031204230340A7265736F75726365204D4F544F5220322042303574
:202880000A7265736F75726365204D4F544F522033204230360A7265736F75726365204D1B
:2028A0004F544F522034204230370A7265736F75726365204C45445F5354524950203120EE
:2028C0004130380A7265736F757263652053455249414C5F54582031204130390A72657383
:2028E0006F757263652053455249414C5F54582032204130320A7265736F757263652053D5
:20290000455249414C5F5458203131204230330A7265736F757263652053455249414C5F47
:202920005458203132204231300A7265736F757263652053455249414C5F52582031204198
:2029400031300A7265736F757263652053455249414C5F52582032204130330A7265736FE2
:20296000757263652053455249414C5F5258203131204230330A7265736F75726365205393
:20298000455249414C5F5258203132204231300A7265736F75726365204932435F53434CEA
:2029A0002031204230380A7265736F75726365204932435F5344412031204230390A726578
:2029C000736F75726365204C45442031204331330A7265736F75726365204C454420322080
:2029E0004331340A7265736F75726365205350495F53434B2031204130350A7265736F7522
:202A0000726365205350495F53434B2032204231330A7265736F75726365205350495F4DEE
:202A200049534F2031204130360A7265736F75726365205350495F4D49534F203220423199
:202A4000340A7265736F75726365205350495F4D4F53492031204130370A7265736F75726A
:202A60006365205350495F4D4F53492032204231350A7265736F75726365204144435F42D6
:202A80004154542031204230300A7265736F75726365204144435F43555252203120423062
:202AA000310A7265736F7572636520464C4153485F43532031204130300A7265736F757234
:202AC0006365204F53445F43532031204231320A7265736F75726365204759524F5F45584E
:202AE00054492031204130310A7265736F75726365204759524F5F43532031204130340A3E
:202B00007265736F75726365205553425F4445544543542031204331350A74696D657220C6
:202B2000413033204146330A74696D657220423034204146320A74696D657220423035203B
:202B40004146320A74696D657220423036204146320A74696D657220423037204146320A19
:202B600074696D657220423033204146310A74696D657220423130204146310A74696D6518
:202B80007220413030204146320A74696D657220413032204146320A74696D6572204130A6
:202BA00038204146310A646D6120414443203120310A646D612070696E2042303420300A7C
:202BC000646D612070696E2042303520300A646D612070696E2042303620300A646D61202E
:202BE00070696E2042303720300A646D612070696E2042303320300A646D612070696E20FA
:202C000042313020300A646D612070696E2041303020300A646D612070696E204130322087
:202C2000300A646D612070696E2041303820300A666561747572652052585F534552494115
:202C40004C0A6665617475726520534F465453455249414C0A666561747572652054454C1B
:202C6000454D455452590A66656174757265204F53440A66656174757265204149524D4FF4
:202C800044450A73657269616C20302036342031313532303020353736303020302031310A
:202CA000353230300A7365742073657269616C72785F70726F7669646572203D204352533E
:202CC000460A73657420626C61636B626F785F646576696365203D20535049464C4153484C
:202CE0000A736574206473686F745F69646C655F76616C7565203D203435300A7365742037
:202D00006473686F745F6275727374203D204155544F0A736574206473686F745F62697416
:202D200062616E67203D204F46460A736574206D6F746F725F70776D5F70726F746F636FE4
:202D40006C203D204453484F543630300A7365742063757272656E745F6D65746572203D20
:202D6000204144430A73657420626174746572795F6D65746572203D204144430A736574E3
:202D8000206265657065725F696E76657273696F6E203D204F4E0A736574206265657065D3
:202DA000725F6F64203D204F46460A7365742073797374656D5F6873655F6D687A203D2032
:202DC000380A736574206D6178373435365F7370695F627573203D20320A73657420666CDE
:202DE0006173685F7370695F627573203D20320A736574206779726F5F315F627573747937
:202E00007065203D205350490A736574206779726F5F315F737069627573203D20310A738D
:202E20006574206779726F5F315F73656E736F725F616C69676E203D2043573138300A73B8
:202E40006574206779726F5F315F616C69676E5F796177203D203138303000FFFFFFFFFFCD
:202E6000FFFFFFFFFFFFFFFFFFFFFFFFFFFFFFFFFFFFFFFFFFFFFFFFFFFFFFFFFFFFFFFF72
:202E8000FFFFFFFFFFFFFFFFFFFFFFFFFFFFFFFFFFFFFFFFFFFFFFFFFFFFFFFFFFFFFFFF52
:202EA000FFFFFFFFFFFFFFFFFFFFFFFFFFFFFFFFFFFFFFFFFFFFFFFFFFFFFFFFFFFFFFFF32
:202EC000FFFFFFFFFFFFFFFFFFFFFFFFFFFFFFFFFFFFFFFFFFFFFFFFFFFFFFFFFFFFFFFF12
:020000040800F2
:20400000AFBE0900FA0100001002000E000500030000000000010100000A001302000000E6
:2040200000013F2A000A000900300000001301260200000000000000000000020000029EF5
:20404000077D0013012602000105016E002C0006000100E001060000020100242526270078
:2040600000000000010000010203040506070058022E04D007E8030C00F6002102000000B0
:20408000000000000000000000000000000000000000000000000000000000000000000020
:2040A000000000000000000000000000000000000000000000000000000000000000000000
:2040C0000000000000000000000000000000000000000000000000000000000000000000E0
:2040E0000000000000000000000000000000000000000000000000000000000000000000C0
:204100000000000000FFFF000000FF1E0000FF3C0000FF5A0000FF780000FF960000FFB431
:204120000000FFD20000FFF00000FF0E0100FF2C0100FF4A0100FF0000000000000000013B
:204140000B020D0A03050B030D0A030A0B040D0A03080B040D0A03070B030D0A0300000078
:20416000000000060A0100000203060000000316002C000000E803D007E803D007E803D09F
:2041800007E803D007320125000200000000000000000000000000000000000000000000FC
:2041A0000000000000000000000000000000000000000000000000000000000000000000FF
:2041C0000000000000000000000000000000000000000000000000000000000000000000DF
:2041E0000000000000000000000000000000000000000000000000000000000000000000BF
:2042000000000000000000000000000000000000000000000000000000000000000000009E
:2042200000000000000000000000000000000000000000000000000000000000000000007E
:2042400000000000000000000000000000000000000000000000000000000000000000005E
:2042600000000000000000000000000000000000000000000000000000000000000000003E
:2042800000000000000000000000000000000000000000000000000000000000000000001E
:2042A00000000000000000000000000000000000000000000000002A002B000000001E008B
:2042C0001E001E0005011E011E011E011E011E011E011E011E011E011E011E011E011E0109
:2042E0001E120001000200E80364000F0A00010A001E000A00270000002003000086000C14
:204300000005003200030707070000004343430064CE07CE07CE07000000000000000000A2
:204320000000003200030707070000004343430064CE07CE07CE0700000000000000000087
:204340000000003200030707070000004343430064CE07CE07CE0700000000000000000067
:204360000000003200030707070000004343430064CE07CE07CE0700000000000000000047
:2043800000000010000301010004040100A816000001007E00290002000000203000000146
:2043A00001001000000201102000000B02203000001B0320300000000000000000000000EE
:2043C0000000000000000000000000000000000000000000000000000000000000000000DD
:2043E0000000000000000000000000000000000000000000000000000000000000000000BD
:20440000000000000000000000000000000000000020000B000300B3014A015E012C01647F
:20442000010100000001000A019A01001E0A0000025E020E00050064004B00000000003057
:204440005F3600970032633E009D002D4600008C0032324B0000002800000000000055F4A1
:2044600001900101374B00500000000000320090015E01F40100000A64C800900196000063
:20448000050F00010F0114004B3200005A140B00004B009600001400280100C814343B0084
:2044A0002514640000000000000000000000003232329600012D090F5A0500640178646EDF
:2044C000915A0F690164640564014B460564004B00000000002D50280078002F542E007DB6
:2044E000002D500000780032324B0000002800000000000055F401900101374B0050000042
:20450000000000320090015E01F40100000A64C8009001960000050F00010F0114004B3271
:2045200000005A140B00004B009600001400280100C8001E2200251464000000000000003F
:20454000000000000032323296000019070F5A0500000264646464646464016464056401B0
:2045600041460564004B00000000002D50280078002F542E007D002D500000780032324B11
:204580000000002800000000000055F401900101374B00500000000000320090015E01F42F
:2045A0000100000A64C8009001960000050F00010F0114004B3200005A140B00004B00968D
:2045C00000001400280100C8001E22002514640000000000000000000000003232329600CD
:2045E0000019070F5A050000026464646464646401646405640141460564004B0000000001
:20460000002D50280078002F542E007D002D500000780032324B0000002800000000000083
:2046200055F401900101374B00500000000000320090015E01F40100000A64C80090019658
:204640000000050F00010F0114004B3200005A140B00004B009600001400280100C8001E27
:20466000220025146400000000000000000000000032323296000019070F5A05000002645B
:2046800064646464646401646405640141460552000D000100010000001405040500000080
:2046A000004000000000050405000000000008000001050405000000000000000005050487
:2046C0000500000000000000001E05040500000000000000001F05040500000000640052C6
:2046E000002201220200000608E916D516C116AD169916851671165D16651678168B169E55
:2047000016B116C416D716EA164916351621160D16FD161117251739176C1680169416A8C0
:2047200016BC16D016E416F8161A163F1664168916AE16D316F8161D170000000000000016
:20474000000000000000000000000000000000000000000000000000000000000000000059
:20476000000000000000000000424F5343414D5F4100424F5343414D5F4200424F53434126
:204780004D5F4500464154534841524B005241434542414E440042414E44362020200042B7
:2047A000414E44372020200042414E44382020200041424546523637383100320033003413
:2047C0000035003600370038000101010101000000050001000000020003000400000000EB
:2047E00000000032352000504954003130300032303000343030004C5635004C5636004C93
:204800005637004500160200001303FF2401002501002601002701002301002A010010029E
:2048200000120200180100000000000000000000000000000000000000000000000000004B
:20484000000000000000000016001F020000FFFFFFFFFFFFFFFFFFFFFFFFFFFFFFFF3E00F3
:2048600018000400000103020405060709000000000001006400DC051A046C07001975038F
:2048800043080E000001000000001E1E1E7D010100000000000000000000000016001B02B2
:2048A000000006000000E8030000000000000000000042001A0200000000000000000000A9
:2048C0000000000000000000000000000000000000000000000000004245464800424554E8
:2048E000414650564634313100000000000000000000010086000400000000000000000024
:20490000000000000000000000000000000000000000000000000000000000000000000097
:20492000000000000000000000000000000000000000000000000000000000000000000077
:20494000000000000000000000000000000000000000000000000000000000000000000057
:20496000000000000000000000000000000000000000000000000000000015000802010017
:20498000151617FFFF2D2E2FFFFF000000FFFF22001C0200000002011400001102000000E7
:2049A000008403010200000000000100000000000016002300020019000000FEFFDFFF2F0E
:2049C00000010000000000430003020100000000000000000000000000000000000000008D
:2049E0000000000000000000000000000000000000000000000000000000000000000000B7
:204A000000000000000000000001100001020000000000000200000000000A000C02000068
:204A2000012C0200A000FD070100E2008109CD084E00CE0082019609760989095609200093
:204A4000EA00EA00EA00EA00EA00EA00EA00EA00EA00EA004A092C00EA00EA00EA00610094
:204A60004100EA000B01EA006200EA00EA00EA00A30096002100EA00EA001601EA00EA00DC
:204A8000EA00EA00EA0041098200EA00EA00EA00EA00EA00EA00EA002109EA002300EA0005
:204AA000EA00CD00EA00EA00EA00EA00EA00EA00EA00EA00EA00EA00EA00EA00EA00EA0073
:204AC000EA00EA000A0013000100480444100900020200000000007A00F5010C00980864B7
:204AE000001401000A010A0000FF1F0000142800002C3700000000FFFFFFFF46000102008A
:204B0000000000000000000000000000000000000000000000000000000000000000000095
:204B2000000000000000000000000000000000000000005000C4FF040000FFFFFFFF010061
:204B4000000005180B0C0000000001C800411E0D001200F6010200000000000100000000E0
:204B60000000000C00F80103000101F401140012000200000000000000000000000000000E
:204B8000001A00FE0100000120000001210000010000000000000001FFFF00180006020198
:204BA000002829000020030000000020030000000020030C00F70100002201000000001400
:204BC000001A0000007E05EA05B4053200E803D00700000B001400000003010023002A002C
:204BE000FD01000019120000000000000000232A1A130000000000000000232A00000000C5
:204C000000000000000000000C001D0200000000000000000A00F90100003D3E00001600D4
:204C200012000300000006010001055334313100000802002A001F00050000000000000110
:204C400000010005000001020300000000000000000000000000000000000080170012009F
:204C60001B000200001800020301F401320001640C0016000200C4090000B40208001000AE
:204C8000010000050B0019000000000028010008000E020000000028002F0002004D65742A
:204CA000656F7237352050726F0000000000000000000000000000000000000000000007EA
:204CC000002D02000000460029020000000000000000000000000000000000000000000034
:204CE0000000000000000000000000000000000000000000000000000000000000000000B4
:204D00000000000000000000000000000A0001010000000000000A000001000090010000EB
:204D20000900020100006E0A010E002002050003643200F40196000E002A02010082009048
:204D400001F40101000C003800040000642C0164000A0005020000000000000A002C0200D6
:204D600000010001001A0023020300000000000000000000000000FF0000000000000010E0
:204D80000000020100000000000000000000000700090200000000001EE20000FFFFFFFF02
:204DA000FFFFFFFFFFFFFFFFFFFFFFFFFFFFFFFFFFFFFFFFFFFFFFFFFFFFFFFFFFFFFFFF13
:204DC000FFFFFFFFFFFFFFFFFFFFFFFFFFFFFFFFFFFFFFFFFFFFFFFFFFFFFFFFFFFFFFFFF3
:204DE000FFFFFFFFFFFFFFFFFFFFFFFFFFFFFFFFFFFFFFFFFFFFFFFFFFFFFFFFFFFFFFFFD3
:204E0000FFFFFFFFFFFFFFFFFFFFFFFFFFFFFFFFFFFFFFFFFFFFFFFFFFFFFFFFFFFFFFFFB2
:020000040800F2
:020000040800F2
:2080000082B01E4B002201920193019B1C4A04330193019B1968936803F00C03042B06D090
:20802000082B08D0174B184A1A6002B07047154B196002B070475368506813F4800F00F053
:208040003F00536812D1C3F388130F49B1FBF0F101FB03F30A4A0B495268C2F3014201328E
:208060005200B3FBF2F30B6002B07047C3F38813B1FBF0F101FB03F3ECE700BF502800402D
:2080800000380240881700200024F400074BD0F8E4105B68D0F8F0205B1A9A42B8BFC0F866
:2080A000F030012380F81C3100207047001000E0B84B00EB800103EBC10170B54A68526840
:2080C000B2F814E01EF0010F4FEA800C6ED15FFA8EF4A60742D5BFF35F8F91F82040012C8B
:2080E000E5B200F0D180118BBFF35F8F0CEB000103EBC10191F82040022C00F0E7800CEB5F
:20810000000103EBC10191F82040032C07D191F8221021B193F87D10002940F0E780918840
:2081200089B241F48061918093F97C100CEB000E03EBCE0E9EF820E00EF1010E8E450CD1A2
:20814000002183F87D1093F87E10002940F0B780604403EBC00300225A7770BD65075DD43B
:2081600014F0400400F0CB80148A93F97C508E6AE4B274555FFA85FE0EF1010464B291F8B0
:20818000206083F87C40E51CAE42214600F025810CEB000503EBC50595F82050AC42C5D105
:2081A0000EF1020149B283F87C10BFE7B2F800E02EF4006E4FEA0E4E4FEA1E4EA2F800E047
:2081C0001488A4B244F48064148091F82240002583F87C50002C48D093F87D40002C41D0DD
:2081E000012183F87D100CEB000103EBC10191F82010022904D1118889B241F400611180F9
:208200000CEB000103EBC101897F41F001011182604403EBC00393F8203070BD91F82240A0
:20822000012583F87E50002C70D093F87D40002C71D10CEB000103EBC10191F82110002922
:2082400000F0AA80118889B241F40071118093F87C1001314CB283F87C401188CE05FCD43F
:20826000214663E7C97FFF29BAD00CEB000103EBC1018C7F04F0FE041482CA7FFF2AC7D00B
:20828000FF2283F87C20C3E791F8221000293FF42AAF93F87D1000293FF425AF118821F416
:2082A00080610904090C1180BFF35F8F118B118883F87E5089B241F4007111802FE791886B
:2082C00021F440710904090C918041E791F8221000293FF414AF93F87D1000293FF40FAF71
:2082E000118821F480610904090C1180918821F480610904090C918093F97C1016E71FFACC
:208300008EF52D062DD493F97C100FE793F87D1000298ED096E791F82040022C148846D9AA
:2083200024F480642404240C1480158A8E6A93F97C40EDB235558E6A118889B241F40071DB
:208340001180E4B2158A611C49B2EDB275549188023489B264B241F4806183F87C40918079
:208360007BE793F97C506E1C3ED04C6A665D16826C1C91F8205064B2A54283F87C4021467E
:208380007FF4D4AE948824F480642404240C9480CCE600BF88170020118893F97C4089B218
:2083A00041F480711180012183F87D1055E7A4B244F400741480158A8E6A93F97C40EDB28C
:2083C0003555E4B28E6A158A611C49B20334EDB264B2755483F87C403FE7958825F4806541
:2083E0002D042D0C9580D3E683F87C40CC7F148291F8224024B991F8201000297FF408AF59
:20840000918821F480610904090C918000E700BF30B5EAB18E464FEA014C034600F1C0059B
:20842000002419689A6841EA0C0142EA0E029A60C3E900140C33AB42F3D1D0F8C030C0F807
:20844000C44043EA0E03C0F8C030C0F8C84030BD4FEA014E8C46E0E7836930B41C6999680E
:208460002268096822F0010222608A899C8992B222EA04028A81027D00681F2A06D9446816
:20848000203A08219140214217D0FEE70468082191402142F9D1202101FA02F28260234A47
:2084A00092F87F203AB11A7E012A0BD1D3F8F8200132C3F8F82030BC7047202101FA02F24D
:2084C000C260ECE7D3F8F4200132C3F8F420EFF31181502282F3128858685C6C026822EAD3
:2084E00004029C6C2243C9B2026081F31188D3E90C401A6999681D6C096814605061D3E9B8
:208500000E40546090600024B3F8A800D5604C62C86210680124204310601C768A899B89AC
:2085200013439BB230BC8B81704700BF88170020704700BF024B03EB401090F89D0070478E
:20854000881700204368B0F8502010B41A83EFF31182502383F312884168446C0B6823EA67
:208560000403C46C2343D2B20B6082F31188D0E907418268036912681C605961D0E9094157
:208580005C60C46A9960B0F86010DC600023D1625DF8044B03767047037D1F2B30B54FF08C
:2085A0002002046816D9A3F120056168AA400A420FD00C4A002182F8801141680A681F2BC0
:2085C00022F001020A604FF0200206D9203B9A40E26030BD21689A40E9E702FA03F3A36050
:2085E000F7E700BF88170020F0B4037D85691F2B63D90168A3F120024E6820249440264232
:2086000049D010239340CC60CB604B68D340DE0767D4EFF31183502282F312882A6C1168F8
:20862000C9072FD4516889B271B9D5E90964A64225D0AF692744D76058D9341BA4B25460FD
:20864000AE62002185F86410116841F00101DBB2116083F31188037D1F2B19D802681946BB
:20866000106808238B40184200D093601068042303FA01F1014200D09160F0BC7047012257
:2086800085F86420DBB283F31188037D1F2BE5D90168A3F120024C6808209040044200D0D4
:2086A000C8604C68042000FA02F22242E5D0203B00FA03F3F0BCCB607047026820241668AE
:2086C0009C4026421946CBD010219940946091601168D940CC079CD5012101FA03F3936091
:2086E00097E7012303FA02F2CA6092E72E69341BA4B25460A962A4E7074BD0F8E4105B68ED
:20870000D0F8F0205B1A9342C8BFC0F8F030012380F81C3100207047001000E04FF4006382
:20872000838170474FF400638381704738B580226B21044610F02EFD642015F06BFDF52186
:20874000204610F077FD0546012015F097FB682D1BD18C21204610F06DFD18280DD81428DD
:2087600034BF0025032520460722682110F012FD642015F04FFD284638BDA0F15403DBB2E5
:20878000072B34BF03250025EDE70025F3E700BF38B590F82820012A04464FF0000307D08A
:2087A000427F5AB103F00100607780F0010038BD406A0268117B69B9637F0BB9012038BD3E
:2087C000074D0849022305F5C27210F0C7FC95F88531E7E7126A002AEED0184638BD00BF57
:2087E000881700209801002010B504462046FFF7CFFF0028FAD0012010BD00BF012343774B
:2088000000207047D0E90B2108B583690B4483610AB108469047002008BD00BF436A1B680C
:208820001B6A5B685B78024613F0010008BF5077704700BFC2628161704700BF704700BFDB
:20884000043070470C4B93F88C21D3F888110244D2B283F88C2193F88C2108441206C3F8F1
:20886000880105D593F88C2182F0800283F88C21024B01229A707047881700209801002098
:208880002DE9F047144FD7F89051ED0A1ED00026B04607F5E479D7F894311048D3F824A0A3
:2088A000C7F8C081AC19641010234A46E102D0470F280BDD0A4B03F1100C53F8041B0131A2
:2088C00007D16345F9D12546B542E4DCE802BDE8F087661CF8E700BF881700201C190020F2
:2088E00050190020122301480B8070479C010020042301480B807047B00100202048D0F8BF
:20890000E837D0F8EC2730B59B184FF01A040C8001D11C4830BD1B4AD0F8EA174FF0000E3E
:2089200010467546B3F1204F4FEA137C0CF130040EF1020E2ABF0CF1370C847080F802C0B4
:20894000BEF1100FC5704FEA031300F10200E9D100200446B1F1204F4FEA117303F1300CB0
:2089600000F102002ABF373382F812C093740828D4744FEA011102F10202EBD1014830BDB2
:2089800000F0FF1FB401002010B5114CD4F8D821D4F8DC31D31A322B12D8D4F8E03193424E
:2089A00000D310BDD4F8E43133B119689B884869034214BF4B830B833232C4F8E02110BD9B
:2089C0000021084611F046FF0023C4F8E03110BD88170020094A92F8F031D2F8E42103F0A6
:2089E00001031AB123B9136892881A8300207047136892885A830020704700BF88170020FC
:208A00004FF40070034B1060D3F800320B600020704700BF88170020002070470120704779
:208A20000120704700207047164BD0F8E0105A6810B50446D0F8D80071B1131A99420BDCEC
:208A400094F8D030C4F8D820012B10D0D4F8D4300133C4F8D43010BDD4F8E430C4F8D820A5
:208A60000344C4F8DC3094F8D030012BEED104F1E801201D10F040FBD4F8D4300133C4F85A
:208A8000D43010BD001000E010B504460E49D0F8D83094F8D020D0F8E40049680344012A94
:208AA000C4E9361305D0D4F8D4300133C4F8D43010BD04F1E801201D10F01EFBD4F8D43056
:208AC0000133C4F8D43010BD001000E070B5866996F8DC30012B8AB0054623D0023B012B2A
:208AE0002BD8D6F89C30164C8C221A700FCCEC46ACE80F00D6F89C300093D6F8A030019330
:208B00000FCCACE80F0094E80300AB698CE8030003F11000694610F0EFFAAB691A69136A1D
:208B2000002BFCD1D6F8A030B3F90220EA81B3F904202A82B3F906306B8201200AB070BD13
:208B40009CCE040870B5224A224C234B94B00546CDE90042214A0992A4F108020A922A7FC1
:208B60000493201D0023CDE905039A42CDE90E330B931093139314BF0520042011936B6AF1
:208B80000C9002200122029018688DF80C200E4607928DF820208DF834208DF8482042F087
:208BA00015F92B7F93B1330E04F8073C063C320C330A22706370A670686A694610F09CFAEA
:208BC0006B6A186842F002F914B070BD073CEEE7B8190020D80100201D880008FD870008E7
:208BE00010B5044694B050220649684644F0A0F8606A694610F080FA636A186842F0E6F897
:208C000014B010BDC4CE04082DE9F0410446406A00681E460F46904642F0D8F8237F002B24
:208C200040D02B4DA0690523C5F88030030E85F8493005F14A039870020C000A58701A7052
:208C40003B68C5F88C300020D8F80030C5F89430012E2363C5F8A4002CD0022E20D1D8F854
:208C60000420C5F89C00796885F89800C5F8A01013441849C5F8A8200120236385F8AC0007
:208C8000C5F8B010144B617F606A03F11402002914BF1946114610F02FFAE36A93B1206B4D
:208CA000BDE8F0810A4DA0690423C5F8803005F14903C0E7074B85F89860C5E92730C5F838
:208CC000A800DFE7636A186842F080F8E7E700BF9801002005880008E801002000B583B063
:208CE00081610192049A0093C26201236A4601A9FFF78AFF03B05DF804FB00BF2DE9F0439E
:208D00000446406A344D006895B00E469146984642F05CF8314B0193314B049305F1D003B6
:208D20000093217F0223029305F1C802012300278DF80C3005920697002936D08DF834302E
:208D40008DF84830CDE90977330ECDE90E77CDE9107785F8C9300523CDF82C908DF82070F3
:208D6000CDF830801397CA350793330C1D4F2B70330A6B70AE70D7F83802656A10F044F9AA
:208D8000637FA88033BB05A9284610F0B5F9636A186842F01BF8D7F83C0210F035F9636A77
:208DA0009880404615B0BDE8F0838DF834308DF848300423CDE90911CDE90E11CDE91011AF
:208DC000CDF82C908DF82010CDF830801391C9350793CAE76946D7E798010020BC190020E0
:208DE0001D88000888170020084B10B5D3F8403218440C46007E11F09DFC18B103688288AE
:208E00000CB11A8310BD5A83FCE700BF88170020F0B5044690F8210183B008B903B0F0BD00
:208E200011F088FC0546002857D083882C4AB3FA83F32621202BC180E260C3F11F02EDD0C8
:208E4000284E294B134406EB82020C34C2F8444293F8787010F010FE0021284610F03AFE94
:208E6000A9882868B1FA81F100F13F40C1F11F0100F57E00C9B2C0F387203CF0D3FEAA885B
:208E80004FF00043B2FA82F2D3403E444FF400620093684601238DF80630ADF8042040F0DD
:208EA00093FC96F88432F02B0DD8AB884FF00042B3FA83F332FA03F3B0D00C490A68134349
:208EC0000B6003B0F0BD0A4AF023D05D86F884320022032140F0B0FCE7E7014BE3609DE7FC
:208EE000298A0008881700209CCE0408003C0140203E0508F0B5836993F8DC20012A8BB01C
:208F0000054627D0023A012A2FD893F84C21D3F89C10174C62F07F030B708669D6F8A030F3
:208F20005F1C0FCCEC46ACE80F00D6F89C30CDE900370FCCACE80F0094E803008CE803000B
:208F4000694606F1100010F0D7F8AB6919690A6A002AFCD1D3F8A0305A8852BAEA819A8875
:208F600052BA2A82DB885BBA6B8201200BB0F0BD24CF0408F0B590F8DC30D0F8A060012B1F
:208F80008BB004464BD015D8D0F89C304FF0FF321A605A609A60DA60D0F8E0300522B3F531
:208FA0007A7FC0F8F02054D8032380F8DC3001200BB0F0BD023B012BF9D890F84D31D0F889
:208FC0009C203A4D63F07F031370D0F8A0305F1C0FCDEC46ACE80F00D4F89C30CDE90037AD
:208FE0000FCDACE80F0095E803008CE80300694604F1100010F080F82269136A002BFCD1CF
:2090000073885BBAA4F8D030B3885BBAA4F8D230F38801205BBAA4F8D4300BB0F0BD90F875
:209020004C2190F84D319B1A5B100133DBB206EB430236F813305BBAA0F8D03053885BBA98
:20904000A0F8D23093885BBAA0F8D43001200BB0F0BD03691A7B2AB35B691BB390F8983061
:2090600003B390F84C31D0F89C20C4F8A40063F07F03137090F84C1190F84D31D0F8A02086
:209080000B48C4F804015B1A07330121C4F8FC30D4F89C3084F800110A44C4E93D3284F8F8
:2090A000DC1084E7022384F8DC3080E724CF04088D800008F0B590F81E31032B8DB00546FF
:2090C00058D090F8DC30D0F8A060012B00F08E8015D8D0F89C3000221A605A609A609A81F6
:2090E000D0F8E0300522B3F57A7FC0F8F02036D80323012480F8DC3020460DB0F0BD023B1E
:20910000012B33D8D0F89C30554F92221A700FCF02AC0FC40FCF0FC497E80300D5F89C3077
:2091200084E80300029302A9D5F8A030039305F110000FF0E1FF2A69136A002BFCD1B6F9B1
:209140000230A5F8D030B6F90430A5F8D230B6F90630A5F8D430012420460DB0F0BD0369D7
:209160001A7B002A5AD1022385F8DC30012420460DB0F0BD3B4902913B4903910A210023E5
:2091800001221030049102A98DF814208DF828200190CDE90633CDE908330B930FF0ACFFED
:2091A0002A690198136A002BFCD13049B1F88E22052A19DDB1F99042D1F89062B1F9927232
:2091C000B1F9941214F5004F20D0C5F8D060A5F8D4100124063A002AC9D0B0227E210FF0F1
:2091E000D9FF20460DB0F0BD1C46F4E7B6F90820A0F8D020B6F90A20A0F8D220B6F90C20ED
:20920000A0F8D4201C4620460DB0F0BD17F5004FDBD111F5004FD8D11C46DBE75B69002B78
:20922000A1D090F89840002C9DD0D0F89C30C5F8A4008C221A70D0F8A020C0F8F8200E220F
:2092400001230B49C0F8FC20D0F89C20C0F80411C0F8F42080F8003180F8DC3087E700BF4B
:209260009CCE04086C020020141A002088170020F98600082DE9F04FB44C94F87FA083B023
:20928000BAF1000F1ED1D4F8F036002B16DD0026AF4831460769D0F8A0303D6825F00105B9
:2092A00003F1C0023D6059600C339A42FBD1D4F8F0360136B34200F58070EBDC012003B01D
:2092C000BDE8F08FD4F8D831984612F007FCD4F89832D4F89C221433801AB0EB430FC0F212
:2092E0002A8104F52877DFF874B2CDF804A004F18006C2460025B846D4F8EC36AB4240F311
:20930000C180B16973680A6998005368D1F8EC201FFA83FCA2EB0C0CD1F8E83000F1085015
:209320000CF1806700EB4310393F00EB87170246974240F29F80116802F58073002900F01C
:20934000EB80116C002900F0EA80D2F88010002900F0E880D2F8C0101A460029E8D19F420A
:2093600040F28880191AACEBA111452928BF4521002703EB81119E4638464FF001090DE03D
:209380001A6C002A40F08280D3F88020002A40F0A780D3F8C02003F580732AB9994205D9CD
:2093A0001A68002AECD04033994272D8112F61D9C7F11503002B5DDB08D000FA03F3C7F180
:2093C0001407012000FA07F747EA0300C0F3C4330BEB8303D3F8B01000F01F030BEB8303E6
:2093E000D3F8B02042EA0132C0F344110BEB8101C0F384230BEB8303D1F8B010D3F8B030E9
:2094000042EA011242EA032383EA132282EA121202F00F020F2A1BD1B3F5803F18D2D4F844
:20942000A8221B090132B3F5606FC4F8A82240F08B8094F8082402EB420204EBC2022A44C9
:2094400092F8B5230D2A7AD00199A8F80C300AE0D4F8A8320133C4F8A832D4F8A432013383
:20946000C4F8A43200213B4B5C2000FB053052460FF082FB0135082D08F1140806F1200656
:209480007FF43AAF012384F8A633FCE6803399428CD9A3EB0E02921102F1010C2E4A82FBEC
:2094A0000CE2A2EBEC72012AB8BF012290401744013A09FA02F210439C46DCF800208AB14D
:2094C000DCF840208AB3DCF880208AB3DCF8C0200CF5807C42B16145EFD89E4663465DE788
:2094E000C03361E70CF1400C6145F6D9ACEB03039B115A1C184B83FB02E3A3EBE273012BDF
:20950000B8BF012398401F44013B09FA03F3184363469E46634641E702F140031FE702F158
:2095200080031CE702F1C00319E70CF1800CDBE70CF1C00CD8E7002003B0BDE8F08F802382
:20954000019988F81E308EE79BB27DE7881700207C1E0020941B0020565555559CCE04086A
:209560002DE9F0412F4F07EB401898F89C300BB9BDE8F0818C2303FB00730E4693F8F62A87
:2095800088F88220002183F8F61A044645010FF0E3FCC0BB3D442448A5F8806000EB44106B
:2095A0000FF09EF897F87F30D5F89820A3B1D5F88410D2F8A03001248C4003F1C00142001C
:2095C00010F4004F90B202D15A6822435A600C339942F4D1BDE8F081D5F88440D2F8A03022
:2095E00004F110020124944003F1C001420010F4004F90B202D15A6822435A600C33994211
:20960000F4D1BDE8F08197F8083403EB430307EBC303234493F8B563002EBBD0012388F851
:209620008230B7E7881700200818002010B5044642F006FF81B22046BDE8104090E700BFD1
:209640002DE9F0411F4D95F8542F95F808349A4231D1D5F8F066002E12DD002495F87F70C0
:209660001948A046013417B1037E012B1ED002691368B44243F0010300F580701360F1D1DE
:2096800012F02CFAD5F8584FC5F89C02002C0BDD0E4A02EBC404116893888889083203438D
:2096A0009BB2A2428B81F6D1BDE8F08180F8F080FEF748FFDBE73FF001FC0028C9D1BDE817
:2096C000F08100BF881700207C1E0020E426002038B5714C94F8542F94F808349A4240F02A
:2096E0007A8194F87C2F002A00F0D48094F87D3F002B40F0D580D4F8801F088820F0800047
:209700000004000C0880B4F8840FC862088880B240F0800008804B628D89B4F8940F2843D1
:2097200080B2012A8881A4F8943F00F0B380D4F8981F088820F080000004000C0880B4F84A
:209740009C0FC862088880B240F0800008804B628D89B4F8AC0F284380B2022A8881A4F8A2
:20976000AC3F00F09780D4F8B01F088820F080000004000C0880B4F8B40FC862088880B249
:2097800040F0800008804B628D89B4F8C40F284380B2032A8881A4F8C43F7BD0D4F8C81FDF
:2097A000088820F080000004000C0880B4F8CC0FC862088880B240F0800008804B628D8983
:2097C000B4F8DC0F284380B2042A8881A4F8DC3F60D0D4F8E01F088820F080000004000C3C
:2097E0000880B4F8E40FC862088880B240F0800008804B628D89B4F8F40F284380B2052AE0
:209800008881A4F8F43F45D0D4F8F80FB4F8FC4F018821F080010904090C0180C462048821
:209820001E49A4B244F080040480436285898C892C43A4B2062A84818B812BD00869048869
:2098400024F080042404240C04808C8AC4620488A4B244F080040480436285898C8C2C4300
:20986000A4B2072A84818B8414D08A6A8C8D108820F080000004000C1080D4621488888FAB
:20988000A4B244F08004148053629489204380B290818B8738BD00BF88170020882700205A
:2098A000D4F8883FB4F88C1F59601968D4F8800F41F00101196040F20D33A0F848308189F1
:2098C00089B241F48071012A8181E3D0D4F8A01FB4F8A40F4860086840F001000860D4F8E0
:2098E000980FA0F84830818989B241F48071022A8181CFD0D4F8B81FB4F8BC0F4860086847
:2099000040F001000860D4F8B00FA0F84830818989B241F48071032A8181BBD0D4F8D01F33
:20992000B4F8D40F4860086840F001000860D4F8C80FA0F84830818989B241F48071042A9B
:209940008181A7D0D4F8E81FB4F8EC0F4860086840F001000860D4F8E00FA0F8483081898E
:2099600089B241F48071052A818193D01D49D4F8F84F08688D884560056845F00105056042
:20998000A4F84830A08980B240F48070062AA08180D088698C8B4460046844F001040460DE
:2099A0000C69A4F84830A08980B240F48070072AA0813FF46FAF086B8A8E426004688A6A6F
:2099C00044F001040460A2F8483093899BB243F48073938138BD3FF071FA00287FF481AED8
:2099E00038BD00BF8827002070B5104ED6F8EC36002B19DD06F18004002505E0D6F8EC36DB
:209A0000AB4204F120040FDD237F0135002BF5D0E0680028F2D0217D10F0FCF9D6F8EC36D7
:209A2000AB4204F12004EFDC012070BD88170020F0B5D0F8805087682B6858493E6823F02F
:209A400001032B6000232B608D426B60AB60EB602B614FF0210383B0044600F160026B614E
:209A600000F097804E4B9D425ED0284601923BF0DBFF019A002384F8543079790C290ED868
:209A8000DFE801F0650D0D0D5E0D0D0D570D0D0D0700B38B23F400631B041B0CB3833046CE
:209AA00015F07AF97B790C2B10D8DFE803F0690F0F0F600F0F0F570F0F0F0700B38B23F45E
:209AC00000631B041B0C43F40063B38340222968A369E06A6262334A03430A40216B134311
:209AE0000B43D4E90D120B431343D4E90F120B431343D4E913120B43134343F040032B608F
:209B0000D4E911316A690B4322F007021343A16A6B61D4E907236960AA60EB602B6843F012
:209B200010032B6003B0F0BD4FF4746143F8201CA0E7B38B23F008031B041B0CB383AEE7A4
:209B4000338B23F400631B041B0C3383A7E7338B23F008031B041B0C3383A0E7B38B23F093
:209B600008031B041B0C43F00803B383AEE7338B23F400631B041B0C43F400633383A5E731
:209B8000338B23F008031B041B0C43F0080333839CE7054B3D2199606CE700BF10600240C1
:209BA000286002403F801CF0006002402DE9F04F6A4F2DED028B97F87F4085B034B9012424
:209BC000204605B0BDEC028BBDE8F08FD7F8D831DFF890B108EE103A11F080FF1BF88C3C85
:209BE0000290002B00F0B48107F5287307F6F42507F20C4A002699460EE02846FFF718FF19
:209C00001BF88C3C01369E4205F18C050AF15C0A09F1140980F2A8805BF8843C029AD31A1D
:209C200003D4AA6D9342C0F27C818C2303FB067393F8483B03F0FF020192002BDDD0AB680C
:209C4000A9891A68D5F880305B681FFA83FE9389CEF1160E9BB223EA0103BEF1070F938140
:209C6000CBD9D7F8A8320133C7F8A832D5F8883003939C4600225CF8044B012190461BE015
:209C8000DCF80000B8F1140FA0EB04031DDC13F1080448BF03F11704231108EB24180446C6
:209CA000581E013102FA03F3012282408E4542EA03020CF1040C08D38E45E1D8C8F11503DC
:209CC000DCF800404FF01508EAE7B8F1150F39D12348C2F38423C2F3441100EB830300EB3F
:209CE0008101D3F83031D1F830111B0243EA011302F01F0100EB8101C2F3C43200EB8202B5
:209D0000D1F83011D2F830210B4343EA023383EA132282EA121202F00F020F2A12D1C3F367
:209D20000F134FF6FF7293420CD0B3F5606F00F0FF80A9F80C30019918EE102A50460EF069
:209D40001BFF5AE7D7F8A4320133C7F8A432002E00F0E08000230193EDE700BF88170020B3
:209D60009CCE0408802800200122002187F8A6234BF8841C002B3FF422AF97F8041B8907C9
:209D800000F1BE80D7F8FC1A086849798A40018C92B289B221EA02010184018C89B20A43FF
:209DA000012B02843FF40BAF97F8902B12F0020FD7F8882B10685479018C0CBF012204223F
:209DC000A24092B289B221EA02010184018C89B20A43022B02843FF4F2AE97F81C2C12F01B
:209DE000020FD7F8142C10685479018C0CBF01220422A24092B289B221EA02010184018CDC
:209E000089B20A43032B02843FF4D9AE97F8A82C12F0020FD7F8A02C10685479018C0CBF9E
:209E200001220422A24092B289B221EA02010184018C89B20A43042B02843FF4C0AE97F8EB
:209E4000342D12F0020FD7F82C2D10685479018C0CBF01220422A24092B289B221EA020111
:209E60000184018C89B20A43052B02843FF4A7AE97F8C02D12F0020FD7F8B82D1068547982
:209E8000018C0CBF01220422A24092B289B221EA02010184018C89B20A43062B02843FF42E
:209EA0008EAE97F84C2E12F0020FD7F8442E10685479018C0CBF01220422A24092B289B2C2
:209EC00021EA02010184018C89B20A43082B02847FF475AED7F8D02E97F8D83E11685079D7
:209EE0000A8C9B074CBF0423012383409BB292B222EA03020A840A8C92B213430B845EE6DE
:209F0000D7F8FC2A10685479018C0422A24089B292B23FE703991148582242F009FF01968D
:209F200009E70024204605B0BDEC028BBDE8F08F97F8082402EB420207EBC202324492F8F6
:209F4000B5230D2A7FF4F5AE802389F81E30F2E6012287F8A6234BF8843C31E6D41A0020FF
:209F60002DE9F843037D01681F2B044608D94868A3F120052022AA40024206D1BDE8F88362
:209F8000086820229A400242F8D0714A714EDFF8DC81526846F8802C98F87D2FA56912BBC0
:209FA0008C2202FB0582D2F8FC0AD2F8747BD0F800903868B2F800CB20F001003860B9F81F
:209FC0000C2092B222EA0C02A9F80C2098F87F200ABB1F2B40F2A880A3F1200220239340C6
:209FE000CB60BDE8F8838C2202FB0582D2F8FC2A5069D2F80090026822F001020260B9F84F
:020000040800F2
:20A000000C2022F480721204120CA9F80C2098F87F20002ADDD08C2303FB05834E4AD3F86D
:20A02000747B3B6823F001033B6000233B6097427B60BB60FB603B614FF021037B617ED0CB
:20A04000464B9F427FD038463BF0EEFC8C2303FB058356F8842C012183F8481B002A69D016
:20A06000B9F800303E499BB243F08003A9F800308C2303FB05F54FF0FF332944C9F82C3002
:20A0800048463BF017FF08EB05030022D3F8200BC3F8182BD3F80C2B39680243D3F8240BFE
:20A0A0000243D3F8280B0243D3F82C0B0243D3F8300B0243D3F8340B0243D3F8400B0243DC
:20A0C000D3F8440B02432748084002433A607969D3F8382BD3F83C0B21F0070102430A43BE
:20A0E0007A61D3F81C2B7A60D3F8102BBA60D3F8142BFA60D3F8742B16215160116841F019
:20A1000001011160D3F8FC2AB3F8003B126891890B439BB20E4993814B6846F87C3C237D12
:20A1200021681F2B3FF658AF202202FA03F38B60BDE8F88311F0D2FC46F8840C90E70A4B68
:20A140003D229A6082E74FF4746243F8202C7DE7001000E080280020106002402860024005
:20A16000F02200203F801CF000600240881700202DE9F047836882B0804613B11A689B88E8
:20A1800053835F4B5B68C3F30803002B40F0B380EFF31183002B40F0AE8011F07BFC05466B
:20A1A000574F584E584C05E011F074FC431BB3F57A7F30D27B68C3F308031BB9EFF311836A
:20A1C000002BF1D0EFF31182102383F312884FF0E0210120D1F818C00B69DB0303D546F871
:20A1E000780CD1F818C0D4F8D8E156F8780CD2B282F3118856F8741C4FF47A7202FB01F353
:20A200007044A3EB0C03B3FBF1F302FB0030431BB3F57A7FCED3D8F8083013B11A689B881D
:20A220001383374C384EDFF8DCA00A2710256368C3F30803002B4BD1EFF31183002B47D13A
:20A2400011F028FC814606E011F024FCA0EB0903B3F57A7F30D26368C3F308031BB9EFF38F
:20A260001183002BF0D0EFF3118285F312884FF0E0210120D1F818C00B69DB0344BF4AF83F
:20A28000780CD1F818C0D6F8D8E15AF8780CD2B282F311885AF8741C4FF47A7202FB01F3A8
:20A2A0007044A3EB0C03B3FBF1F302FB0030A0EB0903B3F57A7FCED3013FB8D1D8F80030EC
:20A2C000ADF804701B6A3BB1384602B0BDE8F08711F080FA8146BEE74046022301AA8021CA
:20A2E0000EF082FF9DF80530242B14BF00200F2002B0BDE8F08711F06DFA054650E700BF2D
:20A3000000ED00E080280020881700202DE9F04F2DED028B034695B000F1100693F81E317E
:20A320000090B6227E21304601930EF033FFBB4CBB4DBC4F08EE106A4FF064094FF010084F
:20A340007B68C3F30803002B40F0BB85EFF31183002B40F0B68511F09DFB82464FF0E02B07
:20A3600006E011F097FBA0EB0A00B0F57A7F30D27B68C3F308031BB9EFF31183002BF0D056
:20A38000EFF3118388F31288DBF81800DBF8102012F4803F4FF001021CBF44F8782CDBF8AF
:20A3A0001800D5F8D82154F878CCDBB283F3118854F8746C4FF47A7101FB06F36244181A6C
:20A3C000B0FBF6F001FB0200A0EB0A00B0F57A7FCED3B9F10109B3D1009B9B6918EE106AC3
:20A3E00013B11A689B8853838E4B5B68C3F30803002B40F0A485EFF31183002B40F09F8548
:20A4000011F048FB8046DFF81CA210274FF0E02906E011F03FFBA0EB0800B0F57A7F32D2C8
:20A42000DAF80430C3F308031BB9EFF31183002BEFD0EFF3118387F31288D9F818E0D9F8FD
:20A440001020D2034FF0010103D544F8781CD9F818E0D5F8D8B154F8782CDBB283F3118863
:20A4600054F874CC4FF47A7101FB0CF002EB0B03A0EB0E00B0FBFCF001FB0300A0EB08006D
:20A48000B0F57A7FCCD3009B9B6913B11A689B881383644F08EE106A4FF00A094FF0100815
:20A4A0007B68C3F30803002B40F01085EFF31183002B40F00B8511F0EDFA82464FF0E02BAD
:20A4C00006E011F0E7FAA0EB0A00B0F57A7F30D27B68C3F308031BB9EFF31183002BF0D0A6
:20A4E000EFF3118388F31288DBF81800DBF8102012F4803F4FF001021CBF44F8782CDBF84E
:20A500001800D5F8D82154F878CCDBB283F3118854F8746C4FF47A7101FB06F36244181A0A
:20A52000B0FBF6F001FB0200A0EB0A00B0F57A7FCED3B9F10109B3D118EE100A4A467C2133
:20A540000EF028FE374B5B68C3F3080318EE106A002B40F0EF84EFF31183002B40F0EA8444
:20A5600011F098FA8046DFF8BCA010274FF0E02906E011F08FFAA0EB0800B0F57A7F32D22B
:20A58000DAF80430C3F308031BB9EFF31183002BEFD0EFF3118387F31288D9F818E0D9F89C
:20A5A0001020D0034FF0010103D544F8781CD9F818E0D5F8D8B154F8782CDBB283F3118804
:20A5C00054F874CC4FF47A7101FB0CF002EB0B03A0EB0E00B0FBFCF001FB0300A0EB08000C
:20A5E000B0F57A7FCCD30022592130460EF0D2FD0C4B5B68C3F30803002B40F09684EFF30D
:20A600001183002B40F0918411F044FA8046DFF814A010274FF0E0290DE000BF80280020B3
:20A620008817002000ED00E011F034FAA0EB0800B0F57A7F32D2DAF80430C3F308031BB98F
:20A64000EFF31183002BEFD0EFF3118387F31288D9F818E0D9F81020D2034FF0010103D558
:20A6600044F8781CD9F818E0D5F8D8B154F8782CDBB283F3118854F874CC4FF47A7101FBA9
:20A680000CF002EB0B03A0EB0E00B0FBFCF001FB0300A0EB0800B0F57A7FCCD30023059309
:20A6A0008DF81C3008930A930D9310931293012306938DF830308DF84430CB4B09935E23DB
:20A6C0008DF80F300DF10F0304934FF4A47300220B9304A900233046CDE90E230EF00CFDC1
:20A6E000009B1A69136A002BFCD1C04F08EE106A4FF00A094FF010087B68C3F30803002BD0
:20A7000040F0E983EFF31183002B40F0E48311F0C1F982464FF0E02B06E011F0BBF9A0EB72
:20A720000A00B0F57A7F30D27B68C3F308031BB9EFF31183002BF0D0EFF3118388F312880B
:20A74000DBF81800DBF8102012F4803F4FF001021CBF44F8782CDBF81800D5F8D82154F84C
:20A7600078CCDBB283F3118854F8746C4FF47A7101FB06F36244181AB0FBF6F001FB020043
:20A78000A0EB0A00B0F57A7FCED3B9F10109B3D118EE100A012259210EF0FCFC934B5B6859
:20A7A000C3F3080318EE106A002B40F0BA83EFF31183002B40F0B58311F06CF98046DFF8B4
:20A7C0002CA210274FF0E02906E011F063F9A0EB0800B0F57A7F32D2DAF80430C3F30803ED
:20A7E0001BB9EFF31183002BEFD0EFF3118387F31288D9F818E0D9F81020D0034FF00101BD
:20A8000003D544F8781CD9F818E0D5F8D8B154F8782CDBB283F3118854F874CC4FF47A712B
:20A8200001FB0CF002EB0B03A0EB0E00B0FBFCF001FB0300A0EB0800B0F57A7FCCD3019B8A
:20A84000032B00F0D1839B22402130460EF0A2FC664B5B68C3F30803002B40F05E83EFF303
:20A860001183002B40F0598311F014F98046DFF87CA110274FF0E02906E011F00BF9A0EB50
:20A880000800B0F57A7F32D2DAF80430C3F308031BB9EFF31183002BEFD0EFF3118387F323
:20A8A0001288D9F818E0D9F81020D0034FF0010103D544F8781CD9F818E0D5F8D8B154F80D
:20A8C000782CDBB283F3118854F874CC4FF47A7101FB0CF002EB0B03A0EB0E00B0FBFCF05B
:20A8E00001FB0300A0EB0800B0F57A7FCCD30322412130460EF04EFC3C4B5B68C3F3080339
:20A90000002B40F00683EFF31183002B40F0018311F0C0F88046DFF8D4A010274FF0E029B5
:20A9200006E011F0B7F8A0EB0800B0F57A7F32D2DAF80430C3F308031BB9EFF31183002B10
:20A94000EFD0EFF3118387F31288D9F818E0D9F81020D2034FF0010103D544F8781CD9F855
:20A9600018E0D5F8D8B154F8782CDBB283F3118854F874CC4FF47A7101FB0CF002EB0B0350
:20A98000A0EB0E00B0FBFCF001FB0300A0EB0800B0F57A7FCCD314F86F3C013BDBB2022B0B
:20A9A00000F29D82124A134493F8F822120162F03202D2B2422130460EF0ECFB0B4B5B683A
:20A9C000C3F30803002B40F0A082EFF31183002B40F09B8211F05EF88046DFF810A0102770
:20A9E0004FF0E0290DE000BF4CD0040800ED00E09CCE040811F04EF8A0EB0800B0F57A7F80
:20AA000032D2DAF80430C3F308031BB9EFF31183002BEFD0EFF3118387F31288D9F818E0E4
:20AA2000D9F81020D0034FF0010103D544F8781CD9F818E0D5F8D8B154F8782CDBB283F347
:20AA4000118854F874CC4FF47A7101FB0CF002EB0B03A0EB0E00B0FBFCF001FB0300A0EBF6
:20AA60000800B0F57A7FCCD30822432130460EF091FBB44B5B68C3F30803002B40F0418262
:20AA8000EFF31183002B40F03C8211F003F88046DFF8B0A210274FF0E02906E010F0FAFFDE
:20AAA000A0EB0800B0F57A7F32D2DAF80430C3F308031BB9EFF31183002BEFD0EFF31183F0
:20AAC00087F31288D9F818E0D9F81020D2034FF0010103D544F8781CD9F818E0D5F8D8B1BB
:20AAE00054F8782CDBB283F3118854F874CC4FF47A7101FB0CF002EB0B03A0EB0E00B0FBD9
:20AB0000FCF001FB0300A0EB0800B0F57A7FCCD3019B032B00F018820422582130460EF013
:20AB200039FB884B5B68C3F30803002B40F0D981EFF31183002B40F0D48110F0ABFF80463F
:20AB4000DFF800A210274FF0E02906E010F0A2FFA0EB0800B0F57A7F31D2DAF80430C3F386
:20AB600008031BB9EFF31183002BEFD0EFF3118387F31288D9F818C0D9F81020D2034FF04E
:20AB8000010103D544F8781CD9F818C0D5F8D82154F8780CDBB283F3118854F8741C8318B9
:20ABA0004FF47A7202FB01F0A0EB0C00B0FBF1F002FB0300A0EB0800B0F57A7FCDD30A2258
:20ABC000532130460EF0E6FA5E4B5B68C3F30803002B40F09281EFF31183002B40F08D8133
:20ABE00010F058FF8046DFF85CA110274FF0E02906E010F04FFFA0EB0800B0F57A7F32D27C
:20AC0000DAF80430C3F308031BB9EFF31183002BEFD0EFF3118387F31288D9F818E0D9F815
:20AC20001020D0034FF0010103D544F8781CD9F818E0D5F8D8B154F8782CDBB283F311887D
:20AC400054F874CC4FF47A7101FB0CF002EB0B03A0EB0E00B0FBFCF001FB0300A0EB080085
:20AC6000B0F57A7FCCD302227C2130460EF092FA344B5B68C3F30803002B40F03A81EFF3DB
:20AC80001183002B40F0358110F004FF8046DFF8B4A010274FF0E02906E010F0FBFEA0EB32
:20ACA0000800B0F57A7F32D2DAF80430C3F308031BB9EFF31183002BEFD0EFF3118387F3FF
:20ACC0001288D9F818E0D9F81020D2034FF0010103D544F8781CD9F818E0D5F8D8B154F8E7
:20ACE000782CDBB283F3118854F874CC4FF47A7101FB0CF002EB0B03A0EB0E00B0FBFCF037
:20AD000001FB0300A0EB0800B0F57A7FCCD30E227D2130460EF03EFA0A4B5B68C3F3080311
:20AD2000002B40F0E280EFF31183002B40F0DD8010F0B0FE8046DFF80CA010274FF0E029B2
:20AD400009E000BF00ED00E010F0A4FEA0EB0800B0F57A7F32D2DAF80430C3F308031BB90C
:20AD6000EFF31183002BEFD0EFF3118387F31288D9F818E0D9F81020D0034FF0010103D533
:20AD800044F8781CD9F818E0D5F8D8B154F8782CDBB283F3118854F874CC4FF47A7101FB82
:20ADA0000CF002EB0B03A0EB0E00B0FBFCF001FB0300A0EB0800B0F57A7FCCD3019B032BD3
:20ADC00000F0B982009B93F82101002852D00FF0B1FC0446002800F02D838388B94A2621A3
:20ADE000B3FA83F3C1800099202BCA60C3F11F0240D0B54B134405EB820293F8786001F1DC
:20AE00000C03C2F844320EF037FE002120460EF061FEA1882068B1FA81F100F13F40C1F1EC
:20AE20001F0100F57E00C9B2C0F387203AF0FAFEA388B3FA83F24FF00043D34004934FF4CC
:20AE40000063ADF8143004A801238DF816303EF0BBFCAB1993F88422F02A00F2BD82A288BC
:20AE60004FF00043B2FA82F2D34003D097490A6813430B602A68964BB3EB920F80F0D082C3
:20AE8000B3EBD20F80F0CA82B3EB121F80F0CA82B3EB521F80F0CC82B3EB921F80F0C4821A
:20AEA000B3EBD21F80F0C282B3EB122F34BF4FF480738023009A938215B0BDEC028BBDE855
:20AEC000F08F10F087FC8246FFF748BA10F082FC8246FFF7F3BA10F07DFC82461AE4CD2299
:20AEE00068E510F077FC80462AE610F073FC804621E710F06FFC8046C9E610F06BFC804672
:20AF000071E610F067FC8046C2E510F063FC804663E510F05FFC8046FDE410F05BFC80467E
:20AF2000A5E410F057FC804649E410F053FC8046FFF76DBB10F04EFC8046FFF714BB10F03A
:20AF400049FC8046FFF75FBA0222582130460EF021F9604B5B68C3F30803002B40F0388268
:20AF6000EFF31183002B40F0338210F093FD8046DFF860A110274FF0E02907E010F08AFD30
:20AF8000A0EB0803B3F57A7FBFF419AEDAF80430C3F308031BB9EFF31183002BEED0EFF324
:20AFA000118287F31288D9F818C0D9F81030D8034FF0010103D544F8781CD9F818C0D5F8F6
:20AFC000D83154F8780CD2B282F3118854F8741C4FF47A72184402FB01F3A3EB0C03B3FB63
:20AFE000F1F302FB0030CBE70022482130460EF0D1F8384B5B68C3F30803002B40F0F681ED
:20B00000EFF31183002B40F0F18110F043FD8046DFF8C0A010274FF0E02906E010F03AFD14
:20B02000A0EB0803B3F57A7F31D2DAF80430C3F308031BB9EFF31183002BEFD0EFF3118365
:20B0400087F31288D9F818C0D9F81020D2034FF0010103D544F8781CD9F818C0D5F8D82105
:20B0600054F8780CDBB283F3118854F8741C10444FF47A7202FB01F3A3EB0C03B3FBF1F3E5
:20B0800002FB0030A0EB0803B3F57A7FCDD38022492130460EF07EF80E4B5B68C3F30803D9
:20B0A000002B40F0B781EFF31183002B40F0B28110F0F0FC8046DFF81CA010274FF0E02935
:20B0C00011E000BF898A00089CCE0408003C01408096980000ED00E010F0DCFCA0EB0803C9
:20B0E000B3F57A7F31D2DAF80430C3F308031BB9EFF31183002BEFD0EFF3118387F3128827
:20B10000D9F818C0D9F81020D0034FF0010103D544F8781CD9F818C0D5F8D82154F8780C8A
:20B12000DBB283F3118854F8741C10444FF47A7202FB01F3A3EB0C03B3FBF1F302FB0030C7
:20B14000A0EB0803B3F57A7FCDD30022452130460EF020F8B94B5B68C3F30803002B40F021
:20B160005581EFF31183002B40F0508110F092FC8046DFF8C8A210274FF0E02906E010F05D
:20B1800089FCA0EB0803B3F57A7F31D2DAF80430C3F308031BB9EFF31183002BEFD0EFF313
:20B1A000118387F31288D9F818C0D9F81020D2034FF0010103D544F8781CD9F818C0D5F809
:20B1C000D82154F8780CDBB283F3118854F8741C10444FF47A7202FB01F3A3EB0C03B3FB6F
:20B1E000F1F302FB0030A0EB0803B3F57A7FCDD30622462130460DF0CDFF904B5B68C3F345
:20B200000803002B40F0FE80EFF31183002B40F0F98010F03FFC8046DFF820A210274FF0F0
:20B22000E02906E010F036FCA0EB0803B3F57A7F31D2DAF80430C3F308031BB9EFF31183A2
:20B24000002BEFD0EFF3118387F31288D9F818C0D9F81020D0034FF0010103D544F8781C14
:20B26000D9F818C0D5F8D82154F8780CDBB283F3118854F8741C10444FF47A7202FB01F3A3
:20B28000A3EB0C03B3FBF1F302FB0030A0EB0803B3F57A7FCDD30022472130460DF07AFF05
:20B2A000664B5B68C3F30803002B40F0A780EFF31183002B40F0A28010F0ECFB8046DFF860
:20B2C0007CA110274FF0E02907E010F0E3FBA0EB0803B3F57A7FBFF4B6AADAF80430C3F307
:20B2E00008031BB9EFF31183002BEED0EFF3118387F31288D9F818C0D9F81020D2034FF0C8
:20B30000010103D544F8781CD9F818C0D5F8D82154F8780CDBB283F3118854F8741C104478
:20B320004FF47A7202FB01F3A3EB0C03B3FBF1F302FB0030CBE73046B0227E210DF02AFFD2
:20B340003E4B5B68C3F30803002B53D1EFF31183002B4FD110F09EFB0746DFF8E09010266D
:20B360004FF0E02806E010F095FBC31BB3F57A7FBFF428ADD9F80430C3F308031BB9EFF38D
:20B380001183002BEFD0EFF3118386F31288D8F818C0D8F81020D2034FF0010103D544F8D4
:20B3A000781CD8F818C0D5F8D82154F8780CDBB283F3118854F8741C10444FF47A7202FBC3
:20B3C00001F3A3EB0C03B3FBF1F302FB0030CCE710F000FA8046CBE5194A905DF02283F81D
:20B3E0008422032100223EF027FA38E510F0F2F980460DE610F0EEF90746AEE710F0EAF9A5
:20B4000080465CE710F0E6F9804605E710F0E2F98046AEE610F0DEF980464CE6042349E539
:20B42000022347E5082345E5202343E5402341E510233FE5009A034BD3601BE500ED00E033
:20B44000203E0508898A00082DE9F047089F884615460021202204461E4641F0CCFC4FB13F
:20B460003B68E3811B0C23827B687A89E3821B0C6282238340463FF03DFEEB0619D4431ECE
:20B48000B8B108EB000701E0013B12D317F801CDBCF12E0FF8D1C01A421E032AA8BF0322C4
